{"contracts/Course.sol":{"OnlineCourse":{"abi":[{"anonymous":false,"inputs":[{"indexed":false,"internalType":"address","name":"student","type":"address"},{"indexed":false,"internalType":"string","name":"courseId","type":"string"},{"indexed":false,"internalType":"address","name":"certificate","type":"address"}],"name":"CertificateIssued","type":"event"},{"anonymous":false,"inputs":[{"indexed":false,"internalType":"address","name":"student","type":"address"},{"indexed":false,"internalType":"string","name":"userId","type":"string"},{"indexed":false,"internalType":"uint256","name":"progress","type":"uint256"},{"indexed":false,"internalType":"bool","name":"completed","type":"bool"}],"name":"CourseProgressUpdated","type":"event"},{"anonymous":false,"inputs":[{"indexed":false,"internalType":"address","name":"buyer","type":"address"},{"indexed":false,"internalType":"string","name":"userId","type":"string"},{"indexed":false,"internalType":"uint256","name":"price","type":"uint256"}],"name":"CoursePurchased","type":"event"},{"inputs":[],"name":"course","outputs":[{"internalType":"string","name":"courseId","type":"string"},{"internalType":"address payable","name":"author","type":"address"},{"internalType":"uint256","name":"price","type":"uint256"},{"internalType":"uint256","name":"totalStudents","type":"uint256"}],"stateMutability":"view","type":"function"},{"inputs":[{"internalType":"address","name":"","type":"address"}],"name":"courseProgress","outputs":[{"internalType":"string","name":"userId","type":"string"},{"internalType":"uint256","name":"progress","type":"uint256"},{"internalType":"bool","name":"completed","type":"bool"},{"internalType":"address","name":"certificate","type":"address"}],"stateMutability":"view","type":"function"},{"inputs":[{"internalType":"string","name":"courseId","type":"string"},{"internalType":"uint256","name":"price","type":"uint256"}],"name":"createCourse","outputs":[],"stateMutability":"nonpayable","type":"function"},{"inputs":[{"internalType":"string","name":"courseId","type":"string"}],"name":"purchaseCourse","outputs":[],"stateMutability":"payable","type":"function"},{"inputs":[{"internalType":"string","name":"userId","type":"string"},{"internalType":"uint256","name":"progress","type":"uint256"},{"internalType":"bool","name":"completed","type":"bool"},{"internalType":"address","name":"certificate","type":"address"}],"name":"updateCourseProgress","outputs":[],"stateMutability":"nonpayable","type":"function"},{"inputs":[],"name":"withdraw","outputs":[],"stateMutability":"nonpayable","type":"function"}],"evm":{"bytecode":{"linkReferences":{},"object":"608060405234801561001057600080fd5b50611316806100206000396000f3fe6080604052600436106100555760003560e01c80633ccfd60b1461005a57806367589b6f14610071578063a1db0e271461008d578063a4fbd531146100b6578063d9f44f5e146100f6578063dcf635911461011f575b600080fd5b34801561006657600080fd5b5061006f61014d565b005b61008b600480360381019061008691906109a1565b610229565b005b34801561009957600080fd5b506100b460048036038101906100af9190610a20565b6103a3565b005b3480156100c257600080fd5b506100dd60048036038101906100d89190610ada565b610498565b6040516100ed9493929190610bbf565b60405180910390f35b34801561010257600080fd5b5061011d60048036038101906101189190610c37565b61057d565b005b34801561012b57600080fd5b50610134610781565b6040516101449493929190610cdb565b60405180910390f35b600060010160009054906101000a900473ffffffffffffffffffffffffffffffffffffffff1673ffffffffffffffffffffffffffffffffffffffff163373ffffffffffffffffffffffffffffffffffffffff16146101e0576040517f08c379a00000000000000000000000000000000000000000000000000000000081526004016101d790610d73565b60405180910390fd5b3373ffffffffffffffffffffffffffffffffffffffff166108fc479081150290604051600060405180830381858888f19350505050158015610226573d6000803e3d6000fd5b50565b600081511161026d576040517f08c379a000000000000000000000000000000000000000000000000000000000815260040161026490610ddf565b60405180910390fd5b600073ffffffffffffffffffffffffffffffffffffffff16600060010160009054906101000a900473ffffffffffffffffffffffffffffffffffffffff1673ffffffffffffffffffffffffffffffffffffffff1603610301576040517f08c379a00000000000000000000000000000000000000000000000000000000081526004016102f890610e4b565b60405180910390fd5b6000600201543414610348576040517f08c379a000000000000000000000000000000000000000000000000000000000815260040161033f90610eb7565b60405180910390fd5b60016000600301600082825461035e9190610f06565b925050819055507fdbe39f9488216e1d6a1a40f39c1f28011c947fc858a0bdf1bf4180cd8195276833823460405161039893929190610f3a565b60405180910390a150565b60008251116103e7576040517f08c379a00000000000000000000000000000000000000000000000000000000081526004016103de90610ddf565b60405180910390fd5b60405180608001604052808381526020013373ffffffffffffffffffffffffffffffffffffffff16815260200182815260200160008152506000808201518160000190816104359190611184565b5060208201518160010160006101000a81548173ffffffffffffffffffffffffffffffffffffffff021916908373ffffffffffffffffffffffffffffffffffffffff16021790555060408201518160020155606082015181600301559050505050565b60046020528060005260406000206000915090508060000180546104bb90610fa7565b80601f01602080910402602001604051908101604052809291908181526020018280546104e790610fa7565b80156105345780601f1061050957610100808354040283529160200191610534565b820191906000526020600020905b81548152906001019060200180831161051757829003601f168201915b5050505050908060010154908060020160009054906101000a900460ff16908060020160019054906101000a900473ffffffffffffffffffffffffffffffffffffffff16905084565b60008451116105c1576040517f08c379a00000000000000000000000000000000000000000000000000000000081526004016105b890610ddf565b60405180910390fd5b604051806080016040528085815260200184815260200183151581526020018273ffffffffffffffffffffffffffffffffffffffff16815250600460003373ffffffffffffffffffffffffffffffffffffffff1673ffffffffffffffffffffffffffffffffffffffff168152602001908152602001600020600082015181600001908161064e9190611184565b506020820151816001015560408201518160020160006101000a81548160ff02191690831515021790555060608201518160020160016101000a81548173ffffffffffffffffffffffffffffffffffffffff021916908373ffffffffffffffffffffffffffffffffffffffff1602179055509050507f691af28236911f8af3221cb4e21c1c2e2fa4b6d7b3c34192bf8c02c8ee86a77b338585856040516106f89493929190611256565b60405180910390a181801561073a5750600073ffffffffffffffffffffffffffffffffffffffff168173ffffffffffffffffffffffffffffffffffffffff1614155b1561077b577f9cacaa1785682162de44043d5882bd0db84f38f147729ba89cd4c50c1c0905d8338583604051610772939291906112a2565b60405180910390a15b50505050565b600080600001805461079290610fa7565b80601f01602080910402602001604051908101604052809291908181526020018280546107be90610fa7565b801561080b5780601f106107e05761010080835404028352916020019161080b565b820191906000526020600020905b8154815290600101906020018083116107ee57829003601f168201915b5050505050908060010160009054906101000a900473ffffffffffffffffffffffffffffffffffffffff16908060020154908060030154905084565b6000604051905090565b600080fd5b600080fd5b600080fd5b600080fd5b6000601f19601f8301169050919050565b7f4e487b7100000000000000000000000000000000000000000000000000000000600052604160045260246000fd5b6108ae82610865565b810181811067ffffffffffffffff821117156108cd576108cc610876565b5b80604052505050565b60006108e0610847565b90506108ec82826108a5565b919050565b600067ffffffffffffffff82111561090c5761090b610876565b5b61091582610865565b9050602081019050919050565b82818337600083830152505050565b600061094461093f846108f1565b6108d6565b9050828152602081018484840111156109605761095f610860565b5b61096b848285610922565b509392505050565b600082601f8301126109885761098761085b565b5b8135610998848260208601610931565b91505092915050565b6000602082840312156109b7576109b6610851565b5b600082013567ffffffffffffffff8111156109d5576109d4610856565b5b6109e184828501610973565b91505092915050565b6000819050919050565b6109fd816109ea565b8114610a0857600080fd5b50565b600081359050610a1a816109f4565b92915050565b60008060408385031215610a3757610a36610851565b5b600083013567ffffffffffffffff811115610a5557610a54610856565b5b610a6185828601610973565b9250506020610a7285828601610a0b565b9150509250929050565b600073ffffffffffffffffffffffffffffffffffffffff82169050919050565b6000610aa782610a7c565b9050919050565b610ab781610a9c565b8114610ac257600080fd5b50565b600081359050610ad481610aae565b92915050565b600060208284031215610af057610aef610851565b5b6000610afe84828501610ac5565b91505092915050565b600081519050919050565b600082825260208201905092915050565b60005b83811015610b41578082015181840152602081019050610b26565b60008484015250505050565b6000610b5882610b07565b610b628185610b12565b9350610b72818560208601610b23565b610b7b81610865565b840191505092915050565b610b8f816109ea565b82525050565b60008115159050919050565b610baa81610b95565b82525050565b610bb981610a9c565b82525050565b60006080820190508181036000830152610bd98187610b4d565b9050610be86020830186610b86565b610bf56040830185610ba1565b610c026060830184610bb0565b95945050505050565b610c1481610b95565b8114610c1f57600080fd5b50565b600081359050610c3181610c0b565b92915050565b60008060008060808587031215610c5157610c50610851565b5b600085013567ffffffffffffffff811115610c6f57610c6e610856565b5b610c7b87828801610973565b9450506020610c8c87828801610a0b565b9350506040610c9d87828801610c22565b9250506060610cae87828801610ac5565b91505092959194509250565b6000610cc582610a7c565b9050919050565b610cd581610cba565b82525050565b60006080820190508181036000830152610cf58187610b4d565b9050610d046020830186610ccc565b610d116040830185610b86565b610d1e6060830184610b86565b95945050505050565b7f4f6e6c7920636f7572736520617574686f722063616e20776974686472617700600082015250565b6000610d5d601f83610b12565b9150610d6882610d27565b602082019050919050565b60006020820190508181036000830152610d8c81610d50565b9050919050565b7f436f757273652049442063616e6e6f7420626520656d70747900000000000000600082015250565b6000610dc9601983610b12565b9150610dd482610d93565b602082019050919050565b60006020820190508181036000830152610df881610dbc565b9050919050565b7f436f7572736520646f6573206e6f742065786973740000000000000000000000600082015250565b6000610e35601583610b12565b9150610e4082610dff565b602082019050919050565b60006020820190508181036000830152610e6481610e28565b9050919050565b7f496e636f7272656374207061796d656e7420616d6f756e740000000000000000600082015250565b6000610ea1601883610b12565b9150610eac82610e6b565b602082019050919050565b60006020820190508181036000830152610ed081610e94565b9050919050565b7f4e487b7100000000000000000000000000000000000000000000000000000000600052601160045260246000fd5b6000610f11826109ea565b9150610f1c836109ea565b9250828201905080821115610f3457610f33610ed7565b5b92915050565b6000606082019050610f4f6000830186610bb0565b8181036020830152610f618185610b4d565b9050610f706040830184610b86565b949350505050565b7f4e487b7100000000000000000000000000000000000000000000000000000000600052602260045260246000fd5b60006002820490506001821680610fbf57607f821691505b602082108103610fd257610fd1610f78565b5b50919050565b60008190508160005260206000209050919050565b60006020601f8301049050919050565b600082821b905092915050565b60006008830261103a7fffffffffffffffffffffffffffffffffffffffffffffffffffffffffffffffff82610ffd565b6110448683610ffd565b95508019841693508086168417925050509392505050565b6000819050919050565b600061108161107c611077846109ea565b61105c565b6109ea565b9050919050565b6000819050919050565b61109b83611066565b6110af6110a782611088565b84845461100a565b825550505050565b600090565b6110c46110b7565b6110cf818484611092565b505050565b5b818110156110f3576110e86000826110bc565b6001810190506110d5565b5050565b601f8211156111385761110981610fd8565b61111284610fed565b81016020851015611121578190505b61113561112d85610fed565b8301826110d4565b50505b505050565b600082821c905092915050565b600061115b6000198460080261113d565b1980831691505092915050565b6000611174838361114a565b9150826002028217905092915050565b61118d82610b07565b67ffffffffffffffff8111156111a6576111a5610876565b5b6111b08254610fa7565b6111bb8282856110f7565b600060209050601f8311600181146111ee57600084156111dc578287015190505b6111e68582611168565b86555061124e565b601f1984166111fc86610fd8565b60005b82811015611224578489015182556001820191506020850194506020810190506111ff565b86831015611241578489015161123d601f89168261114a565b8355505b6001600288020188555050505b505050505050565b600060808201905061126b6000830187610bb0565b818103602083015261127d8186610b4d565b905061128c6040830185610b86565b6112996060830184610ba1565b95945050505050565b60006060820190506112b76000830186610bb0565b81810360208301526112c98185610b4d565b90506112d86040830184610bb0565b94935050505056fea26469706673582212206ebece1794bb2c2a2167c183512bedd5a9b5b1d3451f14b696d1bff09755d6c264736f6c63430008120033","opcodes":"PUSH1 0x80 PUSH1 0x40 MSTORE CALLVALUE DUP1 ISZERO PUSH2 0x10 JUMPI PUSH1 0x0 DUP1 REVERT JUMPDEST POP PUSH2 0x1316 DUP1 PUSH2 0x20 PUSH1 0x0 CODECOPY PUSH1 0x0 RETURN INVALID PUSH1 0x80 PUSH1 0x40 MSTORE PUSH1 0x4 CALLDATASIZE LT PUSH2 0x55 JUMPI PUSH1 0x0 CALLDATALOAD PUSH1 0xE0 SHR DUP1 PUSH4 0x3CCFD60B EQ PUSH2 0x5A JUMPI DUP1 PUSH4 0x67589B6F EQ PUSH2 0x71 JUMPI DUP1 PUSH4 0xA1DB0E27 EQ PUSH2 0x8D JUMPI DUP1 PUSH4 0xA4FBD531 EQ PUSH2 0xB6 JUMPI DUP1 PUSH4 0xD9F44F5E EQ PUSH2 0xF6 JUMPI DUP1 PUSH4 0xDCF63591 EQ PUSH2 0x11F JUMPI JUMPDEST PUSH1 0x0 DUP1 REVERT JUMPDEST CALLVALUE DUP1 ISZERO PUSH2 0x66 JUMPI PUSH1 0x0 DUP1 REVERT JUMPDEST POP PUSH2 0x6F PUSH2 0x14D JUMP JUMPDEST STOP JUMPDEST PUSH2 0x8B PUSH1 0x4 DUP1 CALLDATASIZE SUB DUP2 ADD SWAP1 PUSH2 0x86 SWAP2 SWAP1 PUSH2 0x9A1 JUMP JUMPDEST PUSH2 0x229 JUMP JUMPDEST STOP JUMPDEST CALLVALUE DUP1 ISZERO PUSH2 0x99 JUMPI PUSH1 0x0 DUP1 REVERT JUMPDEST POP PUSH2 0xB4 PUSH1 0x4 DUP1 CALLDATASIZE SUB DUP2 ADD SWAP1 PUSH2 0xAF SWAP2 SWAP1 PUSH2 0xA20 JUMP JUMPDEST PUSH2 0x3A3 JUMP JUMPDEST STOP JUMPDEST CALLVALUE DUP1 ISZERO PUSH2 0xC2 JUMPI PUSH1 0x0 DUP1 REVERT JUMPDEST POP PUSH2 0xDD PUSH1 0x4 DUP1 CALLDATASIZE SUB DUP2 ADD SWAP1 PUSH2 0xD8 SWAP2 SWAP1 PUSH2 0xADA JUMP JUMPDEST PUSH2 0x498 JUMP JUMPDEST PUSH1 0x40 MLOAD PUSH2 0xED SWAP5 SWAP4 SWAP3 SWAP2 SWAP1 PUSH2 0xBBF JUMP JUMPDEST PUSH1 0x40 MLOAD DUP1 SWAP2 SUB SWAP1 RETURN JUMPDEST CALLVALUE DUP1 ISZERO PUSH2 0x102 JUMPI PUSH1 0x0 DUP1 REVERT JUMPDEST POP PUSH2 0x11D PUSH1 0x4 DUP1 CALLDATASIZE SUB DUP2 ADD SWAP1 PUSH2 0x118 SWAP2 SWAP1 PUSH2 0xC37 JUMP JUMPDEST PUSH2 0x57D JUMP JUMPDEST STOP JUMPDEST CALLVALUE DUP1 ISZERO PUSH2 0x12B JUMPI PUSH1 0x0 DUP1 REVERT JUMPDEST POP PUSH2 0x134 PUSH2 0x781 JUMP JUMPDEST PUSH1 0x40 MLOAD PUSH2 0x144 SWAP5 SWAP4 SWAP3 SWAP2 SWAP1 PUSH2 0xCDB JUMP JUMPDEST PUSH1 0x40 MLOAD DUP1 SWAP2 SUB SWAP1 RETURN JUMPDEST PUSH1 0x0 PUSH1 0x1 ADD PUSH1 0x0 SWAP1 SLOAD SWAP1 PUSH2 0x100 EXP SWAP1 DIV PUSH20 0xFFFFFFFFFFFFFFFFFFFFFFFFFFFFFFFFFFFFFFFF AND PUSH20 0xFFFFFFFFFFFFFFFFFFFFFFFFFFFFFFFFFFFFFFFF AND CALLER PUSH20 0xFFFFFFFFFFFFFFFFFFFFFFFFFFFFFFFFFFFFFFFF AND EQ PUSH2 0x1E0 JUMPI PUSH1 0x40 MLOAD PUSH32 0x8C379A000000000000000000000000000000000000000000000000000000000 DUP2 MSTORE PUSH1 0x4 ADD PUSH2 0x1D7 SWAP1 PUSH2 0xD73 JUMP JUMPDEST PUSH1 0x40 MLOAD DUP1 SWAP2 SUB SWAP1 REVERT JUMPDEST CALLER PUSH20 0xFFFFFFFFFFFFFFFFFFFFFFFFFFFFFFFFFFFFFFFF AND PUSH2 0x8FC SELFBALANCE SWAP1 DUP2 ISZERO MUL SWAP1 PUSH1 0x40 MLOAD PUSH1 0x0 PUSH1 0x40 MLOAD DUP1 DUP4 SUB DUP2 DUP6 DUP9 DUP9 CALL SWAP4 POP POP POP POP ISZERO DUP1 ISZERO PUSH2 0x226 JUMPI RETURNDATASIZE PUSH1 0x0 DUP1 RETURNDATACOPY RETURNDATASIZE PUSH1 0x0 REVERT JUMPDEST POP JUMP JUMPDEST PUSH1 0x0 DUP2 MLOAD GT PUSH2 0x26D JUMPI PUSH1 0x40 MLOAD PUSH32 0x8C379A000000000000000000000000000000000000000000000000000000000 DUP2 MSTORE PUSH1 0x4 ADD PUSH2 0x264 SWAP1 PUSH2 0xDDF JUMP JUMPDEST PUSH1 0x40 MLOAD DUP1 SWAP2 SUB SWAP1 REVERT JUMPDEST PUSH1 0x0 PUSH20 0xFFFFFFFFFFFFFFFFFFFFFFFFFFFFFFFFFFFFFFFF AND PUSH1 0x0 PUSH1 0x1 ADD PUSH1 0x0 SWAP1 SLOAD SWAP1 PUSH2 0x100 EXP SWAP1 DIV PUSH20 0xFFFFFFFFFFFFFFFFFFFFFFFFFFFFFFFFFFFFFFFF AND PUSH20 0xFFFFFFFFFFFFFFFFFFFFFFFFFFFFFFFFFFFFFFFF AND SUB PUSH2 0x301 JUMPI PUSH1 0x40 MLOAD PUSH32 0x8C379A000000000000000000000000000000000000000000000000000000000 DUP2 MSTORE PUSH1 0x4 ADD PUSH2 0x2F8 SWAP1 PUSH2 0xE4B JUMP JUMPDEST PUSH1 0x40 MLOAD DUP1 SWAP2 SUB SWAP1 REVERT JUMPDEST PUSH1 0x0 PUSH1 0x2 ADD SLOAD CALLVALUE EQ PUSH2 0x348 JUMPI PUSH1 0x40 MLOAD PUSH32 0x8C379A000000000000000000000000000000000000000000000000000000000 DUP2 MSTORE PUSH1 0x4 ADD PUSH2 0x33F SWAP1 PUSH2 0xEB7 JUMP JUMPDEST PUSH1 0x40 MLOAD DUP1 SWAP2 SUB SWAP1 REVERT JUMPDEST PUSH1 0x1 PUSH1 0x0 PUSH1 0x3 ADD PUSH1 0x0 DUP3 DUP3 SLOAD PUSH2 0x35E SWAP2 SWAP1 PUSH2 0xF06 JUMP JUMPDEST SWAP3 POP POP DUP2 SWAP1 SSTORE POP PUSH32 0xDBE39F9488216E1D6A1A40F39C1F28011C947FC858A0BDF1BF4180CD81952768 CALLER DUP3 CALLVALUE PUSH1 0x40 MLOAD PUSH2 0x398 SWAP4 SWAP3 SWAP2 SWAP1 PUSH2 0xF3A JUMP JUMPDEST PUSH1 0x40 MLOAD DUP1 SWAP2 SUB SWAP1 LOG1 POP JUMP JUMPDEST PUSH1 0x0 DUP3 MLOAD GT PUSH2 0x3E7 JUMPI PUSH1 0x40 MLOAD PUSH32 0x8C379A000000000000000000000000000000000000000000000000000000000 DUP2 MSTORE PUSH1 0x4 ADD PUSH2 0x3DE SWAP1 PUSH2 0xDDF JUMP JUMPDEST PUSH1 0x40 MLOAD DUP1 SWAP2 SUB SWAP1 REVERT JUMPDEST PUSH1 0x40 MLOAD DUP1 PUSH1 0x80 ADD PUSH1 0x40 MSTORE DUP1 DUP4 DUP2 MSTORE PUSH1 0x20 ADD CALLER PUSH20 0xFFFFFFFFFFFFFFFFFFFFFFFFFFFFFFFFFFFFFFFF AND DUP2 MSTORE PUSH1 0x20 ADD DUP3 DUP2 MSTORE PUSH1 0x20 ADD PUSH1 0x0 DUP2 MSTORE POP PUSH1 0x0 DUP1 DUP3 ADD MLOAD DUP2 PUSH1 0x0 ADD SWAP1 DUP2 PUSH2 0x435 SWAP2 SWAP1 PUSH2 0x1184 JUMP JUMPDEST POP PUSH1 0x20 DUP3 ADD MLOAD DUP2 PUSH1 0x1 ADD PUSH1 0x0 PUSH2 0x100 EXP DUP2 SLOAD DUP2 PUSH20 0xFFFFFFFFFFFFFFFFFFFFFFFFFFFFFFFFFFFFFFFF MUL NOT AND SWAP1 DUP4 PUSH20 0xFFFFFFFFFFFFFFFFFFFFFFFFFFFFFFFFFFFFFFFF AND MUL OR SWAP1 SSTORE POP PUSH1 0x40 DUP3 ADD MLOAD DUP2 PUSH1 0x2 ADD SSTORE PUSH1 0x60 DUP3 ADD MLOAD DUP2 PUSH1 0x3 ADD SSTORE SWAP1 POP POP POP POP JUMP JUMPDEST PUSH1 0x4 PUSH1 0x20 MSTORE DUP1 PUSH1 0x0 MSTORE PUSH1 0x40 PUSH1 0x0 KECCAK256 PUSH1 0x0 SWAP2 POP SWAP1 POP DUP1 PUSH1 0x0 ADD DUP1 SLOAD PUSH2 0x4BB SWAP1 PUSH2 0xFA7 JUMP JUMPDEST DUP1 PUSH1 0x1F ADD PUSH1 0x20 DUP1 SWAP2 DIV MUL PUSH1 0x20 ADD PUSH1 0x40 MLOAD SWAP1 DUP2 ADD PUSH1 0x40 MSTORE DUP1 SWAP3 SWAP2 SWAP1 DUP2 DUP2 MSTORE PUSH1 0x20 ADD DUP3 DUP1 SLOAD PUSH2 0x4E7 SWAP1 PUSH2 0xFA7 JUMP JUMPDEST DUP1 ISZERO PUSH2 0x534 JUMPI DUP1 PUSH1 0x1F LT PUSH2 0x509 JUMPI PUSH2 0x100 DUP1 DUP4 SLOAD DIV MUL DUP4 MSTORE SWAP2 PUSH1 0x20 ADD SWAP2 PUSH2 0x534 JUMP JUMPDEST DUP3 ADD SWAP2 SWAP1 PUSH1 0x0 MSTORE PUSH1 0x20 PUSH1 0x0 KECCAK256 SWAP1 JUMPDEST DUP2 SLOAD DUP2 MSTORE SWAP1 PUSH1 0x1 ADD SWAP1 PUSH1 0x20 ADD DUP1 DUP4 GT PUSH2 0x517 JUMPI DUP3 SWAP1 SUB PUSH1 0x1F AND DUP3 ADD SWAP2 JUMPDEST POP POP POP POP POP SWAP1 DUP1 PUSH1 0x1 ADD SLOAD SWAP1 DUP1 PUSH1 0x2 ADD PUSH1 0x0 SWAP1 SLOAD SWAP1 PUSH2 0x100 EXP SWAP1 DIV PUSH1 0xFF AND SWAP1 DUP1 PUSH1 0x2 ADD PUSH1 0x1 SWAP1 SLOAD SWAP1 PUSH2 0x100 EXP SWAP1 DIV PUSH20 0xFFFFFFFFFFFFFFFFFFFFFFFFFFFFFFFFFFFFFFFF AND SWAP1 POP DUP5 JUMP JUMPDEST PUSH1 0x0 DUP5 MLOAD GT PUSH2 0x5C1 JUMPI PUSH1 0x40 MLOAD PUSH32 0x8C379A000000000000000000000000000000000000000000000000000000000 DUP2 MSTORE PUSH1 0x4 ADD PUSH2 0x5B8 SWAP1 PUSH2 0xDDF JUMP JUMPDEST PUSH1 0x40 MLOAD DUP1 SWAP2 SUB SWAP1 REVERT JUMPDEST PUSH1 0x40 MLOAD DUP1 PUSH1 0x80 ADD PUSH1 0x40 MSTORE DUP1 DUP6 DUP2 MSTORE PUSH1 0x20 ADD DUP5 DUP2 MSTORE PUSH1 0x20 ADD DUP4 ISZERO ISZERO DUP2 MSTORE PUSH1 0x20 ADD DUP3 PUSH20 0xFFFFFFFFFFFFFFFFFFFFFFFFFFFFFFFFFFFFFFFF AND DUP2 MSTORE POP PUSH1 0x4 PUSH1 0x0 CALLER PUSH20 0xFFFFFFFFFFFFFFFFFFFFFFFFFFFFFFFFFFFFFFFF AND PUSH20 0xFFFFFFFFFFFFFFFFFFFFFFFFFFFFFFFFFFFFFFFF AND DUP2 MSTORE PUSH1 0x20 ADD SWAP1 DUP2 MSTORE PUSH1 0x20 ADD PUSH1 0x0 KECCAK256 PUSH1 0x0 DUP3 ADD MLOAD DUP2 PUSH1 0x0 ADD SWAP1 DUP2 PUSH2 0x64E SWAP2 SWAP1 PUSH2 0x1184 JUMP JUMPDEST POP PUSH1 0x20 DUP3 ADD MLOAD DUP2 PUSH1 0x1 ADD SSTORE PUSH1 0x40 DUP3 ADD MLOAD DUP2 PUSH1 0x2 ADD PUSH1 0x0 PUSH2 0x100 EXP DUP2 SLOAD DUP2 PUSH1 0xFF MUL NOT AND SWAP1 DUP4 ISZERO ISZERO MUL OR SWAP1 SSTORE POP PUSH1 0x60 DUP3 ADD MLOAD DUP2 PUSH1 0x2 ADD PUSH1 0x1 PUSH2 0x100 EXP DUP2 SLOAD DUP2 PUSH20 0xFFFFFFFFFFFFFFFFFFFFFFFFFFFFFFFFFFFFFFFF MUL NOT AND SWAP1 DUP4 PUSH20 0xFFFFFFFFFFFFFFFFFFFFFFFFFFFFFFFFFFFFFFFF AND MUL OR SWAP1 SSTORE POP SWAP1 POP POP PUSH32 0x691AF28236911F8AF3221CB4E21C1C2E2FA4B6D7B3C34192BF8C02C8EE86A77B CALLER DUP6 DUP6 DUP6 PUSH1 0x40 MLOAD PUSH2 0x6F8 SWAP5 SWAP4 SWAP3 SWAP2 SWAP1 PUSH2 0x1256 JUMP JUMPDEST PUSH1 0x40 MLOAD DUP1 SWAP2 SUB SWAP1 LOG1 DUP2 DUP1 ISZERO PUSH2 0x73A JUMPI POP PUSH1 0x0 PUSH20 0xFFFFFFFFFFFFFFFFFFFFFFFFFFFFFFFFFFFFFFFF AND DUP2 PUSH20 0xFFFFFFFFFFFFFFFFFFFFFFFFFFFFFFFFFFFFFFFF AND EQ ISZERO JUMPDEST ISZERO PUSH2 0x77B JUMPI PUSH32 0x9CACAA1785682162DE44043D5882BD0DB84F38F147729BA89CD4C50C1C0905D8 CALLER DUP6 DUP4 PUSH1 0x40 MLOAD PUSH2 0x772 SWAP4 SWAP3 SWAP2 SWAP1 PUSH2 0x12A2 JUMP JUMPDEST PUSH1 0x40 MLOAD DUP1 SWAP2 SUB SWAP1 LOG1 JUMPDEST POP POP POP POP JUMP JUMPDEST PUSH1 0x0 DUP1 PUSH1 0x0 ADD DUP1 SLOAD PUSH2 0x792 SWAP1 PUSH2 0xFA7 JUMP JUMPDEST DUP1 PUSH1 0x1F ADD PUSH1 0x20 DUP1 SWAP2 DIV MUL PUSH1 0x20 ADD PUSH1 0x40 MLOAD SWAP1 DUP2 ADD PUSH1 0x40 MSTORE DUP1 SWAP3 SWAP2 SWAP1 DUP2 DUP2 MSTORE PUSH1 0x20 ADD DUP3 DUP1 SLOAD PUSH2 0x7BE SWAP1 PUSH2 0xFA7 JUMP JUMPDEST DUP1 ISZERO PUSH2 0x80B JUMPI DUP1 PUSH1 0x1F LT PUSH2 0x7E0 JUMPI PUSH2 0x100 DUP1 DUP4 SLOAD DIV MUL DUP4 MSTORE SWAP2 PUSH1 0x20 ADD SWAP2 PUSH2 0x80B JUMP JUMPDEST DUP3 ADD SWAP2 SWAP1 PUSH1 0x0 MSTORE PUSH1 0x20 PUSH1 0x0 KECCAK256 SWAP1 JUMPDEST DUP2 SLOAD DUP2 MSTORE SWAP1 PUSH1 0x1 ADD SWAP1 PUSH1 0x20 ADD DUP1 DUP4 GT PUSH2 0x7EE JUMPI DUP3 SWAP1 SUB PUSH1 0x1F AND DUP3 ADD SWAP2 JUMPDEST POP POP POP POP POP SWAP1 DUP1 PUSH1 0x1 ADD PUSH1 0x0 SWAP1 SLOAD SWAP1 PUSH2 0x100 EXP SWAP1 DIV PUSH20 0xFFFFFFFFFFFFFFFFFFFFFFFFFFFFFFFFFFFFFFFF AND SWAP1 DUP1 PUSH1 0x2 ADD SLOAD SWAP1 DUP1 PUSH1 0x3 ADD SLOAD SWAP1 POP DUP5 JUMP JUMPDEST PUSH1 0x0 PUSH1 0x40 MLOAD SWAP1 POP SWAP1 JUMP JUMPDEST PUSH1 0x0 DUP1 REVERT JUMPDEST PUSH1 0x0 DUP1 REVERT JUMPDEST PUSH1 0x0 DUP1 REVERT JUMPDEST PUSH1 0x0 DUP1 REVERT JUMPDEST PUSH1 0x0 PUSH1 0x1F NOT PUSH1 0x1F DUP4 ADD AND SWAP1 POP SWAP2 SWAP1 POP JUMP JUMPDEST PUSH32 0x4E487B7100000000000000000000000000000000000000000000000000000000 PUSH1 0x0 MSTORE PUSH1 0x41 PUSH1 0x4 MSTORE PUSH1 0x24 PUSH1 0x0 REVERT JUMPDEST PUSH2 0x8AE DUP3 PUSH2 0x865 JUMP JUMPDEST DUP2 ADD DUP2 DUP2 LT PUSH8 0xFFFFFFFFFFFFFFFF DUP3 GT OR ISZERO PUSH2 0x8CD JUMPI PUSH2 0x8CC PUSH2 0x876 JUMP JUMPDEST JUMPDEST DUP1 PUSH1 0x40 MSTORE POP POP POP JUMP JUMPDEST PUSH1 0x0 PUSH2 0x8E0 PUSH2 0x847 JUMP JUMPDEST SWAP1 POP PUSH2 0x8EC DUP3 DUP3 PUSH2 0x8A5 JUMP JUMPDEST SWAP2 SWAP1 POP JUMP JUMPDEST PUSH1 0x0 PUSH8 0xFFFFFFFFFFFFFFFF DUP3 GT ISZERO PUSH2 0x90C JUMPI PUSH2 0x90B PUSH2 0x876 JUMP JUMPDEST JUMPDEST PUSH2 0x915 DUP3 PUSH2 0x865 JUMP JUMPDEST SWAP1 POP PUSH1 0x20 DUP2 ADD SWAP1 POP SWAP2 SWAP1 POP JUMP JUMPDEST DUP3 DUP2 DUP4 CALLDATACOPY PUSH1 0x0 DUP4 DUP4 ADD MSTORE POP POP POP JUMP JUMPDEST PUSH1 0x0 PUSH2 0x944 PUSH2 0x93F DUP5 PUSH2 0x8F1 JUMP JUMPDEST PUSH2 0x8D6 JUMP JUMPDEST SWAP1 POP DUP3 DUP2 MSTORE PUSH1 0x20 DUP2 ADD DUP5 DUP5 DUP5 ADD GT ISZERO PUSH2 0x960 JUMPI PUSH2 0x95F PUSH2 0x860 JUMP JUMPDEST JUMPDEST PUSH2 0x96B DUP5 DUP3 DUP6 PUSH2 0x922 JUMP JUMPDEST POP SWAP4 SWAP3 POP POP POP JUMP JUMPDEST PUSH1 0x0 DUP3 PUSH1 0x1F DUP4 ADD SLT PUSH2 0x988 JUMPI PUSH2 0x987 PUSH2 0x85B JUMP JUMPDEST JUMPDEST DUP2 CALLDATALOAD PUSH2 0x998 DUP5 DUP3 PUSH1 0x20 DUP7 ADD PUSH2 0x931 JUMP JUMPDEST SWAP2 POP POP SWAP3 SWAP2 POP POP JUMP JUMPDEST PUSH1 0x0 PUSH1 0x20 DUP3 DUP5 SUB SLT ISZERO PUSH2 0x9B7 JUMPI PUSH2 0x9B6 PUSH2 0x851 JUMP JUMPDEST JUMPDEST PUSH1 0x0 DUP3 ADD CALLDATALOAD PUSH8 0xFFFFFFFFFFFFFFFF DUP2 GT ISZERO PUSH2 0x9D5 JUMPI PUSH2 0x9D4 PUSH2 0x856 JUMP JUMPDEST JUMPDEST PUSH2 0x9E1 DUP5 DUP3 DUP6 ADD PUSH2 0x973 JUMP JUMPDEST SWAP2 POP POP SWAP3 SWAP2 POP POP JUMP JUMPDEST PUSH1 0x0 DUP2 SWAP1 POP SWAP2 SWAP1 POP JUMP JUMPDEST PUSH2 0x9FD DUP2 PUSH2 0x9EA JUMP JUMPDEST DUP2 EQ PUSH2 0xA08 JUMPI PUSH1 0x0 DUP1 REVERT JUMPDEST POP JUMP JUMPDEST PUSH1 0x0 DUP2 CALLDATALOAD SWAP1 POP PUSH2 0xA1A DUP2 PUSH2 0x9F4 JUMP JUMPDEST SWAP3 SWAP2 POP POP JUMP JUMPDEST PUSH1 0x0 DUP1 PUSH1 0x40 DUP4 DUP6 SUB SLT ISZERO PUSH2 0xA37 JUMPI PUSH2 0xA36 PUSH2 0x851 JUMP JUMPDEST JUMPDEST PUSH1 0x0 DUP4 ADD CALLDATALOAD PUSH8 0xFFFFFFFFFFFFFFFF DUP2 GT ISZERO PUSH2 0xA55 JUMPI PUSH2 0xA54 PUSH2 0x856 JUMP JUMPDEST JUMPDEST PUSH2 0xA61 DUP6 DUP3 DUP7 ADD PUSH2 0x973 JUMP JUMPDEST SWAP3 POP POP PUSH1 0x20 PUSH2 0xA72 DUP6 DUP3 DUP7 ADD PUSH2 0xA0B JUMP JUMPDEST SWAP2 POP POP SWAP3 POP SWAP3 SWAP1 POP JUMP JUMPDEST PUSH1 0x0 PUSH20 0xFFFFFFFFFFFFFFFFFFFFFFFFFFFFFFFFFFFFFFFF DUP3 AND SWAP1 POP SWAP2 SWAP1 POP JUMP JUMPDEST PUSH1 0x0 PUSH2 0xAA7 DUP3 PUSH2 0xA7C JUMP JUMPDEST SWAP1 POP SWAP2 SWAP1 POP JUMP JUMPDEST PUSH2 0xAB7 DUP2 PUSH2 0xA9C JUMP JUMPDEST DUP2 EQ PUSH2 0xAC2 JUMPI PUSH1 0x0 DUP1 REVERT JUMPDEST POP JUMP JUMPDEST PUSH1 0x0 DUP2 CALLDATALOAD SWAP1 POP PUSH2 0xAD4 DUP2 PUSH2 0xAAE JUMP JUMPDEST SWAP3 SWAP2 POP POP JUMP JUMPDEST PUSH1 0x0 PUSH1 0x20 DUP3 DUP5 SUB SLT ISZERO PUSH2 0xAF0 JUMPI PUSH2 0xAEF PUSH2 0x851 JUMP JUMPDEST JUMPDEST PUSH1 0x0 PUSH2 0xAFE DUP5 DUP3 DUP6 ADD PUSH2 0xAC5 JUMP JUMPDEST SWAP2 POP POP SWAP3 SWAP2 POP POP JUMP JUMPDEST PUSH1 0x0 DUP2 MLOAD SWAP1 POP SWAP2 SWAP1 POP JUMP JUMPDEST PUSH1 0x0 DUP3 DUP3 MSTORE PUSH1 0x20 DUP3 ADD SWAP1 POP SWAP3 SWAP2 POP POP JUMP JUMPDEST PUSH1 0x0 JUMPDEST DUP4 DUP2 LT ISZERO PUSH2 0xB41 JUMPI DUP1 DUP3 ADD MLOAD DUP2 DUP5 ADD MSTORE PUSH1 0x20 DUP2 ADD SWAP1 POP PUSH2 0xB26 JUMP JUMPDEST PUSH1 0x0 DUP5 DUP5 ADD MSTORE POP POP POP POP JUMP JUMPDEST PUSH1 0x0 PUSH2 0xB58 DUP3 PUSH2 0xB07 JUMP JUMPDEST PUSH2 0xB62 DUP2 DUP6 PUSH2 0xB12 JUMP JUMPDEST SWAP4 POP PUSH2 0xB72 DUP2 DUP6 PUSH1 0x20 DUP7 ADD PUSH2 0xB23 JUMP JUMPDEST PUSH2 0xB7B DUP2 PUSH2 0x865 JUMP JUMPDEST DUP5 ADD SWAP2 POP POP SWAP3 SWAP2 POP POP JUMP JUMPDEST PUSH2 0xB8F DUP2 PUSH2 0x9EA JUMP JUMPDEST DUP3 MSTORE POP POP JUMP JUMPDEST PUSH1 0x0 DUP2 ISZERO ISZERO SWAP1 POP SWAP2 SWAP1 POP JUMP JUMPDEST PUSH2 0xBAA DUP2 PUSH2 0xB95 JUMP JUMPDEST DUP3 MSTORE POP POP JUMP JUMPDEST PUSH2 0xBB9 DUP2 PUSH2 0xA9C JUMP JUMPDEST DUP3 MSTORE POP POP JUMP JUMPDEST PUSH1 0x0 PUSH1 0x80 DUP3 ADD SWAP1 POP DUP2 DUP2 SUB PUSH1 0x0 DUP4 ADD MSTORE PUSH2 0xBD9 DUP2 DUP8 PUSH2 0xB4D JUMP JUMPDEST SWAP1 POP PUSH2 0xBE8 PUSH1 0x20 DUP4 ADD DUP7 PUSH2 0xB86 JUMP JUMPDEST PUSH2 0xBF5 PUSH1 0x40 DUP4 ADD DUP6 PUSH2 0xBA1 JUMP JUMPDEST PUSH2 0xC02 PUSH1 0x60 DUP4 ADD DUP5 PUSH2 0xBB0 JUMP JUMPDEST SWAP6 SWAP5 POP POP POP POP POP JUMP JUMPDEST PUSH2 0xC14 DUP2 PUSH2 0xB95 JUMP JUMPDEST DUP2 EQ PUSH2 0xC1F JUMPI PUSH1 0x0 DUP1 REVERT JUMPDEST POP JUMP JUMPDEST PUSH1 0x0 DUP2 CALLDATALOAD SWAP1 POP PUSH2 0xC31 DUP2 PUSH2 0xC0B JUMP JUMPDEST SWAP3 SWAP2 POP POP JUMP JUMPDEST PUSH1 0x0 DUP1 PUSH1 0x0 DUP1 PUSH1 0x80 DUP6 DUP8 SUB SLT ISZERO PUSH2 0xC51 JUMPI PUSH2 0xC50 PUSH2 0x851 JUMP JUMPDEST JUMPDEST PUSH1 0x0 DUP6 ADD CALLDATALOAD PUSH8 0xFFFFFFFFFFFFFFFF DUP2 GT ISZERO PUSH2 0xC6F JUMPI PUSH2 0xC6E PUSH2 0x856 JUMP JUMPDEST JUMPDEST PUSH2 0xC7B DUP8 DUP3 DUP9 ADD PUSH2 0x973 JUMP JUMPDEST SWAP5 POP POP PUSH1 0x20 PUSH2 0xC8C DUP8 DUP3 DUP9 ADD PUSH2 0xA0B JUMP JUMPDEST SWAP4 POP POP PUSH1 0x40 PUSH2 0xC9D DUP8 DUP3 DUP9 ADD PUSH2 0xC22 JUMP JUMPDEST SWAP3 POP POP PUSH1 0x60 PUSH2 0xCAE DUP8 DUP3 DUP9 ADD PUSH2 0xAC5 JUMP JUMPDEST SWAP2 POP POP SWAP3 SWAP6 SWAP2 SWAP5 POP SWAP3 POP JUMP JUMPDEST PUSH1 0x0 PUSH2 0xCC5 DUP3 PUSH2 0xA7C JUMP JUMPDEST SWAP1 POP SWAP2 SWAP1 POP JUMP JUMPDEST PUSH2 0xCD5 DUP2 PUSH2 0xCBA JUMP JUMPDEST DUP3 MSTORE POP POP JUMP JUMPDEST PUSH1 0x0 PUSH1 0x80 DUP3 ADD SWAP1 POP DUP2 DUP2 SUB PUSH1 0x0 DUP4 ADD MSTORE PUSH2 0xCF5 DUP2 DUP8 PUSH2 0xB4D JUMP JUMPDEST SWAP1 POP PUSH2 0xD04 PUSH1 0x20 DUP4 ADD DUP7 PUSH2 0xCCC JUMP JUMPDEST PUSH2 0xD11 PUSH1 0x40 DUP4 ADD DUP6 PUSH2 0xB86 JUMP JUMPDEST PUSH2 0xD1E PUSH1 0x60 DUP4 ADD DUP5 PUSH2 0xB86 JUMP JUMPDEST SWAP6 SWAP5 POP POP POP POP POP JUMP JUMPDEST PUSH32 0x4F6E6C7920636F7572736520617574686F722063616E20776974686472617700 PUSH1 0x0 DUP3 ADD MSTORE POP JUMP JUMPDEST PUSH1 0x0 PUSH2 0xD5D PUSH1 0x1F DUP4 PUSH2 0xB12 JUMP JUMPDEST SWAP2 POP PUSH2 0xD68 DUP3 PUSH2 0xD27 JUMP JUMPDEST PUSH1 0x20 DUP3 ADD SWAP1 POP SWAP2 SWAP1 POP JUMP JUMPDEST PUSH1 0x0 PUSH1 0x20 DUP3 ADD SWAP1 POP DUP2 DUP2 SUB PUSH1 0x0 DUP4 ADD MSTORE PUSH2 0xD8C DUP2 PUSH2 0xD50 JUMP JUMPDEST SWAP1 POP SWAP2 SWAP1 POP JUMP JUMPDEST PUSH32 0x436F757273652049442063616E6E6F7420626520656D70747900000000000000 PUSH1 0x0 DUP3 ADD MSTORE POP JUMP JUMPDEST PUSH1 0x0 PUSH2 0xDC9 PUSH1 0x19 DUP4 PUSH2 0xB12 JUMP JUMPDEST SWAP2 POP PUSH2 0xDD4 DUP3 PUSH2 0xD93 JUMP JUMPDEST PUSH1 0x20 DUP3 ADD SWAP1 POP SWAP2 SWAP1 POP JUMP JUMPDEST PUSH1 0x0 PUSH1 0x20 DUP3 ADD SWAP1 POP DUP2 DUP2 SUB PUSH1 0x0 DUP4 ADD MSTORE PUSH2 0xDF8 DUP2 PUSH2 0xDBC JUMP JUMPDEST SWAP1 POP SWAP2 SWAP1 POP JUMP JUMPDEST PUSH32 0x436F7572736520646F6573206E6F742065786973740000000000000000000000 PUSH1 0x0 DUP3 ADD MSTORE POP JUMP JUMPDEST PUSH1 0x0 PUSH2 0xE35 PUSH1 0x15 DUP4 PUSH2 0xB12 JUMP JUMPDEST SWAP2 POP PUSH2 0xE40 DUP3 PUSH2 0xDFF JUMP JUMPDEST PUSH1 0x20 DUP3 ADD SWAP1 POP SWAP2 SWAP1 POP JUMP JUMPDEST PUSH1 0x0 PUSH1 0x20 DUP3 ADD SWAP1 POP DUP2 DUP2 SUB PUSH1 0x0 DUP4 ADD MSTORE PUSH2 0xE64 DUP2 PUSH2 0xE28 JUMP JUMPDEST SWAP1 POP SWAP2 SWAP1 POP JUMP JUMPDEST PUSH32 0x496E636F7272656374207061796D656E7420616D6F756E740000000000000000 PUSH1 0x0 DUP3 ADD MSTORE POP JUMP JUMPDEST PUSH1 0x0 PUSH2 0xEA1 PUSH1 0x18 DUP4 PUSH2 0xB12 JUMP JUMPDEST SWAP2 POP PUSH2 0xEAC DUP3 PUSH2 0xE6B JUMP JUMPDEST PUSH1 0x20 DUP3 ADD SWAP1 POP SWAP2 SWAP1 POP JUMP JUMPDEST PUSH1 0x0 PUSH1 0x20 DUP3 ADD SWAP1 POP DUP2 DUP2 SUB PUSH1 0x0 DUP4 ADD MSTORE PUSH2 0xED0 DUP2 PUSH2 0xE94 JUMP JUMPDEST SWAP1 POP SWAP2 SWAP1 POP JUMP JUMPDEST PUSH32 0x4E487B7100000000000000000000000000000000000000000000000000000000 PUSH1 0x0 MSTORE PUSH1 0x11 PUSH1 0x4 MSTORE PUSH1 0x24 PUSH1 0x0 REVERT JUMPDEST PUSH1 0x0 PUSH2 0xF11 DUP3 PUSH2 0x9EA JUMP JUMPDEST SWAP2 POP PUSH2 0xF1C DUP4 PUSH2 0x9EA JUMP JUMPDEST SWAP3 POP DUP3 DUP3 ADD SWAP1 POP DUP1 DUP3 GT ISZERO PUSH2 0xF34 JUMPI PUSH2 0xF33 PUSH2 0xED7 JUMP JUMPDEST JUMPDEST SWAP3 SWAP2 POP POP JUMP JUMPDEST PUSH1 0x0 PUSH1 0x60 DUP3 ADD SWAP1 POP PUSH2 0xF4F PUSH1 0x0 DUP4 ADD DUP7 PUSH2 0xBB0 JUMP JUMPDEST DUP2 DUP2 SUB PUSH1 0x20 DUP4 ADD MSTORE PUSH2 0xF61 DUP2 DUP6 PUSH2 0xB4D JUMP JUMPDEST SWAP1 POP PUSH2 0xF70 PUSH1 0x40 DUP4 ADD DUP5 PUSH2 0xB86 JUMP JUMPDEST SWAP5 SWAP4 POP POP POP POP JUMP JUMPDEST PUSH32 0x4E487B7100000000000000000000000000000000000000000000000000000000 PUSH1 0x0 MSTORE PUSH1 0x22 PUSH1 0x4 MSTORE PUSH1 0x24 PUSH1 0x0 REVERT JUMPDEST PUSH1 0x0 PUSH1 0x2 DUP3 DIV SWAP1 POP PUSH1 0x1 DUP3 AND DUP1 PUSH2 0xFBF JUMPI PUSH1 0x7F DUP3 AND SWAP2 POP JUMPDEST PUSH1 0x20 DUP3 LT DUP2 SUB PUSH2 0xFD2 JUMPI PUSH2 0xFD1 PUSH2 0xF78 JUMP JUMPDEST JUMPDEST POP SWAP2 SWAP1 POP JUMP JUMPDEST PUSH1 0x0 DUP2 SWAP1 POP DUP2 PUSH1 0x0 MSTORE PUSH1 0x20 PUSH1 0x0 KECCAK256 SWAP1 POP SWAP2 SWAP1 POP JUMP JUMPDEST PUSH1 0x0 PUSH1 0x20 PUSH1 0x1F DUP4 ADD DIV SWAP1 POP SWAP2 SWAP1 POP JUMP JUMPDEST PUSH1 0x0 DUP3 DUP3 SHL SWAP1 POP SWAP3 SWAP2 POP POP JUMP JUMPDEST PUSH1 0x0 PUSH1 0x8 DUP4 MUL PUSH2 0x103A PUSH32 0xFFFFFFFFFFFFFFFFFFFFFFFFFFFFFFFFFFFFFFFFFFFFFFFFFFFFFFFFFFFFFFFF DUP3 PUSH2 0xFFD JUMP JUMPDEST PUSH2 0x1044 DUP7 DUP4 PUSH2 0xFFD JUMP JUMPDEST SWAP6 POP DUP1 NOT DUP5 AND SWAP4 POP DUP1 DUP7 AND DUP5 OR SWAP3 POP POP POP SWAP4 SWAP3 POP POP POP JUMP JUMPDEST PUSH1 0x0 DUP2 SWAP1 POP SWAP2 SWAP1 POP JUMP JUMPDEST PUSH1 0x0 PUSH2 0x1081 PUSH2 0x107C PUSH2 0x1077 DUP5 PUSH2 0x9EA JUMP JUMPDEST PUSH2 0x105C JUMP JUMPDEST PUSH2 0x9EA JUMP JUMPDEST SWAP1 POP SWAP2 SWAP1 POP JUMP JUMPDEST PUSH1 0x0 DUP2 SWAP1 POP SWAP2 SWAP1 POP JUMP JUMPDEST PUSH2 0x109B DUP4 PUSH2 0x1066 JUMP JUMPDEST PUSH2 0x10AF PUSH2 0x10A7 DUP3 PUSH2 0x1088 JUMP JUMPDEST DUP5 DUP5 SLOAD PUSH2 0x100A JUMP JUMPDEST DUP3 SSTORE POP POP POP POP JUMP JUMPDEST PUSH1 0x0 SWAP1 JUMP JUMPDEST PUSH2 0x10C4 PUSH2 0x10B7 JUMP JUMPDEST PUSH2 0x10CF DUP2 DUP5 DUP5 PUSH2 0x1092 JUMP JUMPDEST POP POP POP JUMP JUMPDEST JUMPDEST DUP2 DUP2 LT ISZERO PUSH2 0x10F3 JUMPI PUSH2 0x10E8 PUSH1 0x0 DUP3 PUSH2 0x10BC JUMP JUMPDEST PUSH1 0x1 DUP2 ADD SWAP1 POP PUSH2 0x10D5 JUMP JUMPDEST POP POP JUMP JUMPDEST PUSH1 0x1F DUP3 GT ISZERO PUSH2 0x1138 JUMPI PUSH2 0x1109 DUP2 PUSH2 0xFD8 JUMP JUMPDEST PUSH2 0x1112 DUP5 PUSH2 0xFED JUMP JUMPDEST DUP2 ADD PUSH1 0x20 DUP6 LT ISZERO PUSH2 0x1121 JUMPI DUP2 SWAP1 POP JUMPDEST PUSH2 0x1135 PUSH2 0x112D DUP6 PUSH2 0xFED JUMP JUMPDEST DUP4 ADD DUP3 PUSH2 0x10D4 JUMP JUMPDEST POP POP JUMPDEST POP POP POP JUMP JUMPDEST PUSH1 0x0 DUP3 DUP3 SHR SWAP1 POP SWAP3 SWAP2 POP POP JUMP JUMPDEST PUSH1 0x0 PUSH2 0x115B PUSH1 0x0 NOT DUP5 PUSH1 0x8 MUL PUSH2 0x113D JUMP JUMPDEST NOT DUP1 DUP4 AND SWAP2 POP POP SWAP3 SWAP2 POP POP JUMP JUMPDEST PUSH1 0x0 PUSH2 0x1174 DUP4 DUP4 PUSH2 0x114A JUMP JUMPDEST SWAP2 POP DUP3 PUSH1 0x2 MUL DUP3 OR SWAP1 POP SWAP3 SWAP2 POP POP JUMP JUMPDEST PUSH2 0x118D DUP3 PUSH2 0xB07 JUMP JUMPDEST PUSH8 0xFFFFFFFFFFFFFFFF DUP2 GT ISZERO PUSH2 0x11A6 JUMPI PUSH2 0x11A5 PUSH2 0x876 JUMP JUMPDEST JUMPDEST PUSH2 0x11B0 DUP3 SLOAD PUSH2 0xFA7 JUMP JUMPDEST PUSH2 0x11BB DUP3 DUP3 DUP6 PUSH2 0x10F7 JUMP JUMPDEST PUSH1 0x0 PUSH1 0x20 SWAP1 POP PUSH1 0x1F DUP4 GT PUSH1 0x1 DUP2 EQ PUSH2 0x11EE JUMPI PUSH1 0x0 DUP5 ISZERO PUSH2 0x11DC JUMPI DUP3 DUP8 ADD MLOAD SWAP1 POP JUMPDEST PUSH2 0x11E6 DUP6 DUP3 PUSH2 0x1168 JUMP JUMPDEST DUP7 SSTORE POP PUSH2 0x124E JUMP JUMPDEST PUSH1 0x1F NOT DUP5 AND PUSH2 0x11FC DUP7 PUSH2 0xFD8 JUMP JUMPDEST PUSH1 0x0 JUMPDEST DUP3 DUP2 LT ISZERO PUSH2 0x1224 JUMPI DUP5 DUP10 ADD MLOAD DUP3 SSTORE PUSH1 0x1 DUP3 ADD SWAP2 POP PUSH1 0x20 DUP6 ADD SWAP5 POP PUSH1 0x20 DUP2 ADD SWAP1 POP PUSH2 0x11FF JUMP JUMPDEST DUP7 DUP4 LT ISZERO PUSH2 0x1241 JUMPI DUP5 DUP10 ADD MLOAD PUSH2 0x123D PUSH1 0x1F DUP10 AND DUP3 PUSH2 0x114A JUMP JUMPDEST DUP4 SSTORE POP JUMPDEST PUSH1 0x1 PUSH1 0x2 DUP9 MUL ADD DUP9 SSTORE POP POP POP JUMPDEST POP POP POP POP POP POP JUMP JUMPDEST PUSH1 0x0 PUSH1 0x80 DUP3 ADD SWAP1 POP PUSH2 0x126B PUSH1 0x0 DUP4 ADD DUP8 PUSH2 0xBB0 JUMP JUMPDEST DUP2 DUP2 SUB PUSH1 0x20 DUP4 ADD MSTORE PUSH2 0x127D DUP2 DUP7 PUSH2 0xB4D JUMP JUMPDEST SWAP1 POP PUSH2 0x128C PUSH1 0x40 DUP4 ADD DUP6 PUSH2 0xB86 JUMP JUMPDEST PUSH2 0x1299 PUSH1 0x60 DUP4 ADD DUP5 PUSH2 0xBA1 JUMP JUMPDEST SWAP6 SWAP5 POP POP POP POP POP JUMP JUMPDEST PUSH1 0x0 PUSH1 0x60 DUP3 ADD SWAP1 POP PUSH2 0x12B7 PUSH1 0x0 DUP4 ADD DUP7 PUSH2 0xBB0 JUMP JUMPDEST DUP2 DUP2 SUB PUSH1 0x20 DUP4 ADD MSTORE PUSH2 0x12C9 DUP2 DUP6 PUSH2 0xB4D JUMP JUMPDEST SWAP1 POP PUSH2 0x12D8 PUSH1 0x40 DUP4 ADD DUP5 PUSH2 0xBB0 JUMP JUMPDEST SWAP5 SWAP4 POP POP POP POP JUMP INVALID LOG2 PUSH5 0x6970667358 0x22 SLT KECCAK256 PUSH15 0xBECE1794BB2C2A2167C183512BEDD5 0xA9 0xB5 0xB1 0xD3 GASLIMIT 0x1F EQ 0xB6 SWAP7 0xD1 0xBF CREATE SWAP8 SSTORE 0xD6 0xC2 PUSH5 0x736F6C6343 STOP ADDMOD SLT STOP CALLER "},"methodIdentifiers":{"course()":"dcf63591","courseProgress(address)":"a4fbd531","createCourse(string,uint256)":"a1db0e27","purchaseCourse(string)":"67589b6f","updateCourseProgress(string,uint256,bool,address)":"d9f44f5e","withdraw()":"3ccfd60b"}}}}}