{
  "_format": "hh-sol-artifact-1",
  "contractName": "OnlineCourse",
  "sourceName": "contracts/Course.sol",
  "abi": [
    {
      "anonymous": false,
      "inputs": [
        {
          "indexed": false,
          "internalType": "address",
          "name": "student",
          "type": "address"
        },
        {
          "indexed": false,
          "internalType": "string",
          "name": "courseId",
          "type": "string"
        },
        {
          "indexed": false,
          "internalType": "address",
          "name": "certificate",
          "type": "address"
        }
      ],
      "name": "CertificateIssued",
      "type": "event"
    },
    {
      "anonymous": false,
      "inputs": [
        {
          "indexed": false,
          "internalType": "address",
          "name": "student",
          "type": "address"
        },
        {
          "indexed": false,
          "internalType": "string",
          "name": "userId",
          "type": "string"
        },
        {
          "indexed": false,
          "internalType": "uint256",
          "name": "progress",
          "type": "uint256"
        },
        {
          "indexed": false,
          "internalType": "bool",
          "name": "completed",
          "type": "bool"
        }
      ],
      "name": "CourseProgressUpdated",
      "type": "event"
    },
    {
      "anonymous": false,
      "inputs": [
        {
          "indexed": false,
          "internalType": "address",
          "name": "buyer",
          "type": "address"
        },
        {
          "indexed": false,
          "internalType": "string",
          "name": "userId",
          "type": "string"
        },
        {
          "indexed": false,
          "internalType": "uint256",
          "name": "price",
          "type": "uint256"
        }
      ],
      "name": "CoursePurchased",
      "type": "event"
    },
    {
      "inputs": [],
      "name": "course",
      "outputs": [
        {
          "internalType": "string",
          "name": "courseId",
          "type": "string"
        },
        {
          "internalType": "address payable",
          "name": "author",
          "type": "address"
        },
        {
          "internalType": "uint256",
          "name": "price",
          "type": "uint256"
        },
        {
          "internalType": "uint256",
          "name": "totalStudents",
          "type": "uint256"
        }
      ],
      "stateMutability": "view",
      "type": "function"
    },
    {
      "inputs": [
        {
          "internalType": "address",
          "name": "",
          "type": "address"
        }
      ],
      "name": "courseProgress",
      "outputs": [
        {
          "internalType": "string",
          "name": "userId",
          "type": "string"
        },
        {
          "internalType": "uint256",
          "name": "progress",
          "type": "uint256"
        },
        {
          "internalType": "bool",
          "name": "completed",
          "type": "bool"
        },
        {
          "internalType": "address",
          "name": "certificate",
          "type": "address"
        }
      ],
      "stateMutability": "view",
      "type": "function"
    },
    {
      "inputs": [
        {
          "internalType": "string",
          "name": "courseId",
          "type": "string"
        },
        {
          "internalType": "uint256",
          "name": "price",
          "type": "uint256"
        }
      ],
      "name": "createCourse",
      "outputs": [],
      "stateMutability": "nonpayable",
      "type": "function"
    },
    {
      "inputs": [
        {
          "internalType": "string",
          "name": "courseId",
          "type": "string"
        }
      ],
      "name": "purchaseCourse",
      "outputs": [],
      "stateMutability": "payable",
      "type": "function"
    },
    {
      "inputs": [
        {
          "internalType": "string",
          "name": "userId",
          "type": "string"
        },
        {
          "internalType": "uint256",
          "name": "progress",
          "type": "uint256"
        },
        {
          "internalType": "bool",
          "name": "completed",
          "type": "bool"
        },
        {
          "internalType": "address",
          "name": "certificate",
          "type": "address"
        }
      ],
      "name": "updateCourseProgress",
      "outputs": [],
      "stateMutability": "nonpayable",
      "type": "function"
    },
    {
      "inputs": [],
      "name": "withdraw",
      "outputs": [],
      "stateMutability": "nonpayable",
      "type": "function"
    }
  ],
  "bytecode": "0x608060405234801561001057600080fd5b50611316806100206000396000f3fe6080604052600436106100555760003560e01c80633ccfd60b1461005a57806367589b6f14610071578063a1db0e271461008d578063a4fbd531146100b6578063d9f44f5e146100f6578063dcf635911461011f575b600080fd5b34801561006657600080fd5b5061006f61014d565b005b61008b600480360381019061008691906109a1565b610229565b005b34801561009957600080fd5b506100b460048036038101906100af9190610a20565b6103a3565b005b3480156100c257600080fd5b506100dd60048036038101906100d89190610ada565b610498565b6040516100ed9493929190610bbf565b60405180910390f35b34801561010257600080fd5b5061011d60048036038101906101189190610c37565b61057d565b005b34801561012b57600080fd5b50610134610781565b6040516101449493929190610cdb565b60405180910390f35b600060010160009054906101000a900473ffffffffffffffffffffffffffffffffffffffff1673ffffffffffffffffffffffffffffffffffffffff163373ffffffffffffffffffffffffffffffffffffffff16146101e0576040517f08c379a00000000000000000000000000000000000000000000000000000000081526004016101d790610d73565b60405180910390fd5b3373ffffffffffffffffffffffffffffffffffffffff166108fc479081150290604051600060405180830381858888f19350505050158015610226573d6000803e3d6000fd5b50565b600081511161026d576040517f08c379a000000000000000000000000000000000000000000000000000000000815260040161026490610ddf565b60405180910390fd5b600073ffffffffffffffffffffffffffffffffffffffff16600060010160009054906101000a900473ffffffffffffffffffffffffffffffffffffffff1673ffffffffffffffffffffffffffffffffffffffff1603610301576040517f08c379a00000000000000000000000000000000000000000000000000000000081526004016102f890610e4b565b60405180910390fd5b6000600201543414610348576040517f08c379a000000000000000000000000000000000000000000000000000000000815260040161033f90610eb7565b60405180910390fd5b60016000600301600082825461035e9190610f06565b925050819055507fdbe39f9488216e1d6a1a40f39c1f28011c947fc858a0bdf1bf4180cd8195276833823460405161039893929190610f3a565b60405180910390a150565b60008251116103e7576040517f08c379a00000000000000000000000000000000000000000000000000000000081526004016103de90610ddf565b60405180910390fd5b60405180608001604052808381526020013373ffffffffffffffffffffffffffffffffffffffff16815260200182815260200160008152506000808201518160000190816104359190611184565b5060208201518160010160006101000a81548173ffffffffffffffffffffffffffffffffffffffff021916908373ffffffffffffffffffffffffffffffffffffffff16021790555060408201518160020155606082015181600301559050505050565b60046020528060005260406000206000915090508060000180546104bb90610fa7565b80601f01602080910402602001604051908101604052809291908181526020018280546104e790610fa7565b80156105345780601f1061050957610100808354040283529160200191610534565b820191906000526020600020905b81548152906001019060200180831161051757829003601f168201915b5050505050908060010154908060020160009054906101000a900460ff16908060020160019054906101000a900473ffffffffffffffffffffffffffffffffffffffff16905084565b60008451116105c1576040517f08c379a00000000000000000000000000000000000000000000000000000000081526004016105b890610ddf565b60405180910390fd5b604051806080016040528085815260200184815260200183151581526020018273ffffffffffffffffffffffffffffffffffffffff16815250600460003373ffffffffffffffffffffffffffffffffffffffff1673ffffffffffffffffffffffffffffffffffffffff168152602001908152602001600020600082015181600001908161064e9190611184565b506020820151816001015560408201518160020160006101000a81548160ff02191690831515021790555060608201518160020160016101000a81548173ffffffffffffffffffffffffffffffffffffffff021916908373ffffffffffffffffffffffffffffffffffffffff1602179055509050507f691af28236911f8af3221cb4e21c1c2e2fa4b6d7b3c34192bf8c02c8ee86a77b338585856040516106f89493929190611256565b60405180910390a181801561073a5750600073ffffffffffffffffffffffffffffffffffffffff168173ffffffffffffffffffffffffffffffffffffffff1614155b1561077b577f9cacaa1785682162de44043d5882bd0db84f38f147729ba89cd4c50c1c0905d8338583604051610772939291906112a2565b60405180910390a15b50505050565b600080600001805461079290610fa7565b80601f01602080910402602001604051908101604052809291908181526020018280546107be90610fa7565b801561080b5780601f106107e05761010080835404028352916020019161080b565b820191906000526020600020905b8154815290600101906020018083116107ee57829003601f168201915b5050505050908060010160009054906101000a900473ffffffffffffffffffffffffffffffffffffffff16908060020154908060030154905084565b6000604051905090565b600080fd5b600080fd5b600080fd5b600080fd5b6000601f19601f8301169050919050565b7f4e487b7100000000000000000000000000000000000000000000000000000000600052604160045260246000fd5b6108ae82610865565b810181811067ffffffffffffffff821117156108cd576108cc610876565b5b80604052505050565b60006108e0610847565b90506108ec82826108a5565b919050565b600067ffffffffffffffff82111561090c5761090b610876565b5b61091582610865565b9050602081019050919050565b82818337600083830152505050565b600061094461093f846108f1565b6108d6565b9050828152602081018484840111156109605761095f610860565b5b61096b848285610922565b509392505050565b600082601f8301126109885761098761085b565b5b8135610998848260208601610931565b91505092915050565b6000602082840312156109b7576109b6610851565b5b600082013567ffffffffffffffff8111156109d5576109d4610856565b5b6109e184828501610973565b91505092915050565b6000819050919050565b6109fd816109ea565b8114610a0857600080fd5b50565b600081359050610a1a816109f4565b92915050565b60008060408385031215610a3757610a36610851565b5b600083013567ffffffffffffffff811115610a5557610a54610856565b5b610a6185828601610973565b9250506020610a7285828601610a0b565b9150509250929050565b600073ffffffffffffffffffffffffffffffffffffffff82169050919050565b6000610aa782610a7c565b9050919050565b610ab781610a9c565b8114610ac257600080fd5b50565b600081359050610ad481610aae565b92915050565b600060208284031215610af057610aef610851565b5b6000610afe84828501610ac5565b91505092915050565b600081519050919050565b600082825260208201905092915050565b60005b83811015610b41578082015181840152602081019050610b26565b60008484015250505050565b6000610b5882610b07565b610b628185610b12565b9350610b72818560208601610b23565b610b7b81610865565b840191505092915050565b610b8f816109ea565b82525050565b60008115159050919050565b610baa81610b95565b82525050565b610bb981610a9c565b82525050565b60006080820190508181036000830152610bd98187610b4d565b9050610be86020830186610b86565b610bf56040830185610ba1565b610c026060830184610bb0565b95945050505050565b610c1481610b95565b8114610c1f57600080fd5b50565b600081359050610c3181610c0b565b92915050565b60008060008060808587031215610c5157610c50610851565b5b600085013567ffffffffffffffff811115610c6f57610c6e610856565b5b610c7b87828801610973565b9450506020610c8c87828801610a0b565b9350506040610c9d87828801610c22565b9250506060610cae87828801610ac5565b91505092959194509250565b6000610cc582610a7c565b9050919050565b610cd581610cba565b82525050565b60006080820190508181036000830152610cf58187610b4d565b9050610d046020830186610ccc565b610d116040830185610b86565b610d1e6060830184610b86565b95945050505050565b7f4f6e6c7920636f7572736520617574686f722063616e20776974686472617700600082015250565b6000610d5d601f83610b12565b9150610d6882610d27565b602082019050919050565b60006020820190508181036000830152610d8c81610d50565b9050919050565b7f436f757273652049442063616e6e6f7420626520656d70747900000000000000600082015250565b6000610dc9601983610b12565b9150610dd482610d93565b602082019050919050565b60006020820190508181036000830152610df881610dbc565b9050919050565b7f436f7572736520646f6573206e6f742065786973740000000000000000000000600082015250565b6000610e35601583610b12565b9150610e4082610dff565b602082019050919050565b60006020820190508181036000830152610e6481610e28565b9050919050565b7f496e636f7272656374207061796d656e7420616d6f756e740000000000000000600082015250565b6000610ea1601883610b12565b9150610eac82610e6b565b602082019050919050565b60006020820190508181036000830152610ed081610e94565b9050919050565b7f4e487b7100000000000000000000000000000000000000000000000000000000600052601160045260246000fd5b6000610f11826109ea565b9150610f1c836109ea565b9250828201905080821115610f3457610f33610ed7565b5b92915050565b6000606082019050610f4f6000830186610bb0565b8181036020830152610f618185610b4d565b9050610f706040830184610b86565b949350505050565b7f4e487b7100000000000000000000000000000000000000000000000000000000600052602260045260246000fd5b60006002820490506001821680610fbf57607f821691505b602082108103610fd257610fd1610f78565b5b50919050565b60008190508160005260206000209050919050565b60006020601f8301049050919050565b600082821b905092915050565b60006008830261103a7fffffffffffffffffffffffffffffffffffffffffffffffffffffffffffffffff82610ffd565b6110448683610ffd565b95508019841693508086168417925050509392505050565b6000819050919050565b600061108161107c611077846109ea565b61105c565b6109ea565b9050919050565b6000819050919050565b61109b83611066565b6110af6110a782611088565b84845461100a565b825550505050565b600090565b6110c46110b7565b6110cf818484611092565b505050565b5b818110156110f3576110e86000826110bc565b6001810190506110d5565b5050565b601f8211156111385761110981610fd8565b61111284610fed565b81016020851015611121578190505b61113561112d85610fed565b8301826110d4565b50505b505050565b600082821c905092915050565b600061115b6000198460080261113d565b1980831691505092915050565b6000611174838361114a565b9150826002028217905092915050565b61118d82610b07565b67ffffffffffffffff8111156111a6576111a5610876565b5b6111b08254610fa7565b6111bb8282856110f7565b600060209050601f8311600181146111ee57600084156111dc578287015190505b6111e68582611168565b86555061124e565b601f1984166111fc86610fd8565b60005b82811015611224578489015182556001820191506020850194506020810190506111ff565b86831015611241578489015161123d601f89168261114a565b8355505b6001600288020188555050505b505050505050565b600060808201905061126b6000830187610bb0565b818103602083015261127d8186610b4d565b905061128c6040830185610b86565b6112996060830184610ba1565b95945050505050565b60006060820190506112b76000830186610bb0565b81810360208301526112c98185610b4d565b90506112d86040830184610bb0565b94935050505056fea26469706673582212206ebece1794bb2c2a2167c183512bedd5a9b5b1d3451f14b696d1bff09755d6c264736f6c63430008120033",
  "linkReferences": {},
  "deployedLinkReferences": {}
}